{
  "contractName": "ClientManagement",
  "abi": [
    {
      "inputs": [],
      "stateMutability": "nonpayable",
      "type": "constructor"
    },
    {
      "anonymous": false,
      "inputs": [
        {
          "indexed": false,
          "internalType": "string",
          "name": "_clientId",
          "type": "string"
        }
      ],
      "name": "Register",
      "type": "event"
    },
    {
      "inputs": [
        {
          "internalType": "string",
          "name": "_name",
          "type": "string"
        },
        {
          "internalType": "string",
          "name": "_clientID",
          "type": "string"
        },
        {
          "internalType": "string",
          "name": "_pubKey",
          "type": "string"
        },
        {
          "internalType": "string",
          "name": "_scopes",
          "type": "string"
        },
        {
          "internalType": "string",
          "name": "_redirectUrl",
          "type": "string"
        }
      ],
      "name": "register",
      "outputs": [],
      "stateMutability": "nonpayable",
      "type": "function"
    },
    {
      "inputs": [
        {
          "internalType": "string",
          "name": "_clientID",
          "type": "string"
        }
      ],
      "name": "unregister",
      "outputs": [],
      "stateMutability": "nonpayable",
      "type": "function"
    },
    {
      "inputs": [
        {
          "internalType": "string",
          "name": "_clientID",
          "type": "string"
        },
        {
          "internalType": "string",
          "name": "_newPubKey",
          "type": "string"
        }
      ],
      "name": "updatePubKey",
      "outputs": [],
      "stateMutability": "view",
      "type": "function"
    },
    {
      "inputs": [
        {
          "internalType": "string",
          "name": "_clientID",
          "type": "string"
        }
      ],
      "name": "get",
      "outputs": [
        {
          "components": [
            {
              "internalType": "string",
              "name": "name",
              "type": "string"
            },
            {
              "internalType": "string",
              "name": "clientId",
              "type": "string"
            },
            {
              "internalType": "string",
              "name": "pubKey",
              "type": "string"
            },
            {
              "internalType": "string",
              "name": "scopes",
              "type": "string"
            },
            {
              "internalType": "address",
              "name": "clientAddress",
              "type": "address"
            },
            {
              "internalType": "string",
              "name": "url",
              "type": "string"
            }
          ],
          "internalType": "struct ClientManagement.ClientInfo",
          "name": "",
          "type": "tuple"
        }
      ],
      "stateMutability": "view",
      "type": "function"
    }
  ],
  "bytecode": "0x608060405234801561001057600080fd5b506112d4806100206000396000f3fe608060405234801561001057600080fd5b506004361061004c5760003560e01c80635a09007b146100515780636598a1ae1461006d578063693ec85e14610089578063eeff429f146100b9575b600080fd5b61006b60048036038101906100669190610ba8565b6100d5565b005b61008760048036038101906100829190610caf565b610238565b005b6100a3600480360381019061009e9190610caf565b6102d3565b6040516100b09190610e5d565b60405180910390f35b6100d360048036038101906100ce9190610e7f565b61063b565b005b600033905060006040518060c001604052808881526020018781526020018681526020018581526020018373ffffffffffffffffffffffffffffffffffffffff168152602001848152509050806000876040516101329190610f33565b908152602001604051809103902060008201518160000190816101559190611160565b50602082015181600101908161016b9190611160565b5060408201518160020190816101819190611160565b5060608201518160030190816101979190611160565b5060808201518160040160006101000a81548173ffffffffffffffffffffffffffffffffffffffff021916908373ffffffffffffffffffffffffffffffffffffffff16021790555060a08201518160050190816101f49190611160565b509050507f40b2d3af7e7a908ab771e3b293d2df299bb187d4ac2dcb3dbc2455fdcf5c15dd86604051610227919061127c565b60405180910390a150505050505050565b6000816040516102489190610f33565b90815260200160405180910390206000808201600061026791906109a5565b60018201600061027791906109a5565b60028201600061028791906109a5565b60038201600061029791906109a5565b6004820160006101000a81549073ffffffffffffffffffffffffffffffffffffffff02191690556005820160006102ce91906109a5565b505050565b6102db6109e5565b6000826040516102eb9190610f33565b90815260200160405180910390206040518060c001604052908160008201805461031490610f79565b80601f016020809104026020016040519081016040528092919081815260200182805461034090610f79565b801561038d5780601f106103625761010080835404028352916020019161038d565b820191906000526020600020905b81548152906001019060200180831161037057829003601f168201915b505050505081526020016001820180546103a690610f79565b80601f01602080910402602001604051908101604052809291908181526020018280546103d290610f79565b801561041f5780601f106103f45761010080835404028352916020019161041f565b820191906000526020600020905b81548152906001019060200180831161040257829003601f168201915b5050505050815260200160028201805461043890610f79565b80601f016020809104026020016040519081016040528092919081815260200182805461046490610f79565b80156104b15780601f10610486576101008083540402835291602001916104b1565b820191906000526020600020905b81548152906001019060200180831161049457829003601f168201915b505050505081526020016003820180546104ca90610f79565b80601f01602080910402602001604051908101604052809291908181526020018280546104f690610f79565b80156105435780601f1061051857610100808354040283529160200191610543565b820191906000526020600020905b81548152906001019060200180831161052657829003601f168201915b505050505081526020016004820160009054906101000a900473ffffffffffffffffffffffffffffffffffffffff1673ffffffffffffffffffffffffffffffffffffffff1673ffffffffffffffffffffffffffffffffffffffff1681526020016005820180546105b290610f79565b80601f01602080910402602001604051908101604052809291908181526020018280546105de90610f79565b801561062b5780601f106106005761010080835404028352916020019161062b565b820191906000526020600020905b81548152906001019060200180831161060e57829003601f168201915b5050505050815250509050919050565b6000808360405161064c9190610f33565b90815260200160405180910390206040518060c001604052908160008201805461067590610f79565b80601f01602080910402602001604051908101604052809291908181526020018280546106a190610f79565b80156106ee5780601f106106c3576101008083540402835291602001916106ee565b820191906000526020600020905b8154815290600101906020018083116106d157829003601f168201915b5050505050815260200160018201805461070790610f79565b80601f016020809104026020016040519081016040528092919081815260200182805461073390610f79565b80156107805780601f1061075557610100808354040283529160200191610780565b820191906000526020600020905b81548152906001019060200180831161076357829003601f168201915b5050505050815260200160028201805461079990610f79565b80601f01602080910402602001604051908101604052809291908181526020018280546107c590610f79565b80156108125780601f106107e757610100808354040283529160200191610812565b820191906000526020600020905b8154815290600101906020018083116107f557829003601f168201915b5050505050815260200160038201805461082b90610f79565b80601f016020809104026020016040519081016040528092919081815260200182805461085790610f79565b80156108a45780601f10610879576101008083540402835291602001916108a4565b820191906000526020600020905b81548152906001019060200180831161088757829003601f168201915b505050505081526020016004820160009054906101000a900473ffffffffffffffffffffffffffffffffffffffff1673ffffffffffffffffffffffffffffffffffffffff1673ffffffffffffffffffffffffffffffffffffffff16815260200160058201805461091390610f79565b80601f016020809104026020016040519081016040528092919081815260200182805461093f90610f79565b801561098c5780601f106109615761010080835404028352916020019161098c565b820191906000526020600020905b81548152906001019060200180831161096f57829003601f168201915b5050505050815250509050818160400181905250505050565b5080546109b190610f79565b6000825580601f106109c357506109e2565b601f0160209004906000526020600020908101906109e19190610a31565b5b50565b6040518060c0016040528060608152602001606081526020016060815260200160608152602001600073ffffffffffffffffffffffffffffffffffffffff168152602001606081525090565b5b80821115610a4a576000816000905550600101610a32565b5090565b6000604051905090565b600080fd5b600080fd5b600080fd5b600080fd5b6000601f19601f8301169050919050565b7f4e487b7100000000000000000000000000000000000000000000000000000000600052604160045260246000fd5b610ab582610a6c565b810181811067ffffffffffffffff82111715610ad457610ad3610a7d565b5b80604052505050565b6000610ae7610a4e565b9050610af38282610aac565b919050565b600067ffffffffffffffff821115610b1357610b12610a7d565b5b610b1c82610a6c565b9050602081019050919050565b82818337600083830152505050565b6000610b4b610b4684610af8565b610add565b905082815260208101848484011115610b6757610b66610a67565b5b610b72848285610b29565b509392505050565b600082601f830112610b8f57610b8e610a62565b5b8135610b9f848260208601610b38565b91505092915050565b600080600080600060a08688031215610bc457610bc3610a58565b5b600086013567ffffffffffffffff811115610be257610be1610a5d565b5b610bee88828901610b7a565b955050602086013567ffffffffffffffff811115610c0f57610c0e610a5d565b5b610c1b88828901610b7a565b945050604086013567ffffffffffffffff811115610c3c57610c3b610a5d565b5b610c4888828901610b7a565b935050606086013567ffffffffffffffff811115610c6957610c68610a5d565b5b610c7588828901610b7a565b925050608086013567ffffffffffffffff811115610c9657610c95610a5d565b5b610ca288828901610b7a565b9150509295509295909350565b600060208284031215610cc557610cc4610a58565b5b600082013567ffffffffffffffff811115610ce357610ce2610a5d565b5b610cef84828501610b7a565b91505092915050565b600081519050919050565b600082825260208201905092915050565b60005b83811015610d32578082015181840152602081019050610d17565b60008484015250505050565b6000610d4982610cf8565b610d538185610d03565b9350610d63818560208601610d14565b610d6c81610a6c565b840191505092915050565b600073ffffffffffffffffffffffffffffffffffffffff82169050919050565b6000610da282610d77565b9050919050565b610db281610d97565b82525050565b600060c0830160008301518482036000860152610dd58282610d3e565b91505060208301518482036020860152610def8282610d3e565b91505060408301518482036040860152610e098282610d3e565b91505060608301518482036060860152610e238282610d3e565b9150506080830151610e386080860182610da9565b5060a083015184820360a0860152610e508282610d3e565b9150508091505092915050565b60006020820190508181036000830152610e778184610db8565b905092915050565b60008060408385031215610e9657610e95610a58565b5b600083013567ffffffffffffffff811115610eb457610eb3610a5d565b5b610ec085828601610b7a565b925050602083013567ffffffffffffffff811115610ee157610ee0610a5d565b5b610eed85828601610b7a565b9150509250929050565b600081905092915050565b6000610f0d82610cf8565b610f178185610ef7565b9350610f27818560208601610d14565b80840191505092915050565b6000610f3f8284610f02565b915081905092915050565b7f4e487b7100000000000000000000000000000000000000000000000000000000600052602260045260246000fd5b60006002820490506001821680610f9157607f821691505b602082108103610fa457610fa3610f4a565b5b50919050565b60008190508160005260206000209050919050565b60006020601f8301049050919050565b600082821b905092915050565b60006008830261100c7fffffffffffffffffffffffffffffffffffffffffffffffffffffffffffffffff82610fcf565b6110168683610fcf565b95508019841693508086168417925050509392505050565b6000819050919050565b6000819050919050565b600061105d6110586110538461102e565b611038565b61102e565b9050919050565b6000819050919050565b61107783611042565b61108b61108382611064565b848454610fdc565b825550505050565b600090565b6110a0611093565b6110ab81848461106e565b505050565b5b818110156110cf576110c4600082611098565b6001810190506110b1565b5050565b601f821115611114576110e581610faa565b6110ee84610fbf565b810160208510156110fd578190505b61111161110985610fbf565b8301826110b0565b50505b505050565b600082821c905092915050565b600061113760001984600802611119565b1980831691505092915050565b60006111508383611126565b9150826002028217905092915050565b61116982610cf8565b67ffffffffffffffff81111561118257611181610a7d565b5b61118c8254610f79565b6111978282856110d3565b600060209050601f8311600181146111ca57600084156111b8578287015190505b6111c28582611144565b86555061122a565b601f1984166111d886610faa565b60005b82811015611200578489015182556001820191506020850194506020810190506111db565b8683101561121d5784890151611219601f891682611126565b8355505b6001600288020188555050505b505050505050565b600082825260208201905092915050565b600061124e82610cf8565b6112588185611232565b9350611268818560208601610d14565b61127181610a6c565b840191505092915050565b600060208201905081810360008301526112968184611243565b90509291505056fea2646970667358221220efbbe48248c9ac038f8003b2c8b09f975073212ba4946857d6966d75481b43dc64736f6c63430008110033",
  "immutableReferences": {},
  "source": "// SPDX-License-Identifier: UNLICENSED\npragma solidity ^0.8.0;\n\ncontract ClientManagement {\n\n    event Register(string _clientId);\n\n    struct ClientInfo {\n        string name;\n        string clientId;\n        string pubKey;\n        string scopes;\n        address clientAddress;\n        string url;\n    }\n\n    mapping(string => ClientInfo) clients;\n\n    constructor(){}\n\n    function register(\n        string memory _name,\n        string memory _clientID,\n        string memory _pubKey,\n        string memory _scopes,\n        string memory _redirectUrl) external {\n        address _clientAddr = msg.sender;\n        ClientInfo memory client = ClientInfo(_name, _clientID, _pubKey, _scopes, _clientAddr, _redirectUrl);\n        clients[_clientID] = client;\n        emit Register(_clientID);\n    }\n\n    function unregister(string memory _clientID) external {\n        delete clients[_clientID];\n    }\n\n    function updatePubKey(string memory _clientID, string memory _newPubKey) external view {\n        ClientInfo memory client = clients[_clientID];\n        client.pubKey = _newPubKey;\n    }\n\n    function get(string memory _clientID) external view returns(ClientInfo memory) {\n        return clients[_clientID];\n    }\n}",
  "sourcePath": "/Users/tao.duongkhac/Documents/Blockchain/Truffle/contracts/ClientManagement.sol",
  "compiler": {
    "name": "solc",
    "version": "0.8.17+commit.8df45f5f.Emscripten.clang"
  },
  "schemaVersion": "3.4.11",
  "updatedAt": "2023-03-13T23:36:19.848Z",
  "devdoc": {
    "kind": "dev",
    "methods": {},
    "version": 1
  },
  "userdoc": {
    "kind": "user",
    "methods": {},
    "version": 1
  }
}