{
  "contractName": "Identification",
  "abi": [
    {
      "inputs": [
        {
          "internalType": "address",
          "name": "_spareAddr",
          "type": "address"
        },
        {
          "internalType": "string",
          "name": "_nick",
          "type": "string"
        },
        {
          "internalType": "string",
          "name": "_fullName",
          "type": "string"
        },
        {
          "internalType": "string",
          "name": "_email",
          "type": "string"
        },
        {
          "internalType": "uint256",
          "name": "_gender",
          "type": "uint256"
        },
        {
          "internalType": "string",
          "name": "_birthdate",
          "type": "string"
        },
        {
          "internalType": "string",
          "name": "_website",
          "type": "string"
        },
        {
          "internalType": "string",
          "name": "_locale",
          "type": "string"
        },
        {
          "internalType": "string",
          "name": "_location",
          "type": "string"
        },
        {
          "internalType": "string[]",
          "name": "_claimKeys",
          "type": "string[]"
        },
        {
          "internalType": "string[]",
          "name": "_claimValues",
          "type": "string[]"
        }
      ],
      "stateMutability": "nonpayable",
      "type": "constructor"
    },
    {
      "anonymous": false,
      "inputs": [
        {
          "indexed": false,
          "internalType": "string",
          "name": "_email",
          "type": "string"
        },
        {
          "indexed": false,
          "internalType": "string",
          "name": "_name",
          "type": "string"
        },
        {
          "indexed": false,
          "internalType": "string",
          "name": "_gender",
          "type": "string"
        },
        {
          "indexed": false,
          "internalType": "address",
          "name": "ownerAddr",
          "type": "address"
        }
      ],
      "name": "Register",
      "type": "event"
    },
    {
      "anonymous": false,
      "inputs": [
        {
          "indexed": false,
          "internalType": "string",
          "name": "_email",
          "type": "string"
        },
        {
          "indexed": false,
          "internalType": "string",
          "name": "_claim",
          "type": "string"
        }
      ],
      "name": "Upsert",
      "type": "event"
    },
    {
      "inputs": [
        {
          "internalType": "string",
          "name": "_nick",
          "type": "string"
        },
        {
          "internalType": "string",
          "name": "_fullName",
          "type": "string"
        },
        {
          "internalType": "string",
          "name": "_email",
          "type": "string"
        },
        {
          "internalType": "uint256",
          "name": "_gender",
          "type": "uint256"
        },
        {
          "internalType": "string",
          "name": "_birthdate",
          "type": "string"
        },
        {
          "internalType": "string",
          "name": "_website",
          "type": "string"
        },
        {
          "internalType": "string",
          "name": "_locale",
          "type": "string"
        },
        {
          "internalType": "string",
          "name": "_location",
          "type": "string"
        }
      ],
      "name": "updateDefaultClaim",
      "outputs": [],
      "stateMutability": "nonpayable",
      "type": "function"
    },
    {
      "inputs": [
        {
          "internalType": "string",
          "name": "_name",
          "type": "string"
        },
        {
          "internalType": "string",
          "name": "_value",
          "type": "string"
        }
      ],
      "name": "upsert",
      "outputs": [],
      "stateMutability": "nonpayable",
      "type": "function"
    },
    {
      "inputs": [
        {
          "internalType": "string[]",
          "name": "_claimKeyDels",
          "type": "string[]"
        },
        {
          "internalType": "string[]",
          "name": "_claimKeys",
          "type": "string[]"
        },
        {
          "internalType": "string[]",
          "name": "_claimValues",
          "type": "string[]"
        }
      ],
      "name": "updateClaims",
      "outputs": [],
      "stateMutability": "nonpayable",
      "type": "function"
    },
    {
      "inputs": [
        {
          "internalType": "string",
          "name": "_name",
          "type": "string"
        }
      ],
      "name": "deleteClaim",
      "outputs": [],
      "stateMutability": "nonpayable",
      "type": "function"
    },
    {
      "inputs": [
        {
          "internalType": "string",
          "name": "_name",
          "type": "string"
        }
      ],
      "name": "getClaim",
      "outputs": [
        {
          "internalType": "string",
          "name": "",
          "type": "string"
        }
      ],
      "stateMutability": "view",
      "type": "function"
    },
    {
      "inputs": [
        {
          "internalType": "string[]",
          "name": "_claimKeys",
          "type": "string[]"
        }
      ],
      "name": "getClaims",
      "outputs": [
        {
          "internalType": "string[]",
          "name": "values",
          "type": "string[]"
        }
      ],
      "stateMutability": "view",
      "type": "function"
    },
    {
      "inputs": [],
      "name": "getDefaultClaim",
      "outputs": [
        {
          "internalType": "string",
          "name": "nick",
          "type": "string"
        },
        {
          "internalType": "string",
          "name": "fullName",
          "type": "string"
        },
        {
          "internalType": "string",
          "name": "email",
          "type": "string"
        },
        {
          "internalType": "uint256",
          "name": "gender",
          "type": "uint256"
        },
        {
          "internalType": "string",
          "name": "birthdate",
          "type": "string"
        },
        {
          "internalType": "string",
          "name": "website",
          "type": "string"
        },
        {
          "internalType": "string",
          "name": "locale",
          "type": "string"
        },
        {
          "internalType": "string",
          "name": "location",
          "type": "string"
        }
      ],
      "stateMutability": "view",
      "type": "function"
    }
  ],
  "bytecode": "0x60806040523480156200001157600080fd5b506040516200244538038062002445833981810160405281019062000037919062000522565b336000806101000a81548173ffffffffffffffffffffffffffffffffffffffff021916908373ffffffffffffffffffffffffffffffffffffffff1602179055508a600160006101000a81548173ffffffffffffffffffffffffffffffffffffffff021916908373ffffffffffffffffffffffffffffffffffffffff1602179055508960026000019081620000cc919062000987565b508860026001019081620000e1919062000987565b5087600280019081620000f5919062000987565b5086600260030181905550856002600401908162000114919062000987565b50846002600501908162000129919062000987565b5083600260060190816200013e919062000987565b50826002600701908162000153919062000987565b5060005b8251811015620001e15781818151811062000177576200017662000a6e565b5b6020026020010151600a84838151811062000197576200019662000a6e565b5b6020026020010151604051620001ae919062000adf565b90815260200160405180910390209081620001ca919062000987565b508080620001d89062000b27565b91505062000157565b50505050505050505050505062000b74565b6000604051905090565b600080fd5b600080fd5b600073ffffffffffffffffffffffffffffffffffffffff82169050919050565b6000620002348262000207565b9050919050565b620002468162000227565b81146200025257600080fd5b50565b60008151905062000266816200023b565b92915050565b600080fd5b600080fd5b6000601f19601f8301169050919050565b7f4e487b7100000000000000000000000000000000000000000000000000000000600052604160045260246000fd5b620002c18262000276565b810181811067ffffffffffffffff82111715620002e357620002e262000287565b5b80604052505050565b6000620002f8620001f3565b9050620003068282620002b6565b919050565b600067ffffffffffffffff82111562000329576200032862000287565b5b620003348262000276565b9050602081019050919050565b60005b838110156200036157808201518184015260208101905062000344565b60008484015250505050565b6000620003846200037e846200030b565b620002ec565b905082815260208101848484011115620003a357620003a262000271565b5b620003b084828562000341565b509392505050565b600082601f830112620003d057620003cf6200026c565b5b8151620003e28482602086016200036d565b91505092915050565b6000819050919050565b6200040081620003eb565b81146200040c57600080fd5b50565b6000815190506200042081620003f5565b92915050565b600067ffffffffffffffff82111562000444576200044362000287565b5b602082029050602081019050919050565b600080fd5b6000620004716200046b8462000426565b620002ec565b9050808382526020820190506020840283018581111562000497576200049662000455565b5b835b81811015620004e557805167ffffffffffffffff811115620004c057620004bf6200026c565b5b808601620004cf8982620003b8565b8552602085019450505060208101905062000499565b5050509392505050565b600082601f8301126200050757620005066200026c565b5b8151620005198482602086016200045a565b91505092915050565b60008060008060008060008060008060006101608c8e0312156200054b576200054a620001fd565b5b60006200055b8e828f0162000255565b9b505060208c015167ffffffffffffffff8111156200057f576200057e62000202565b5b6200058d8e828f01620003b8565b9a505060408c015167ffffffffffffffff811115620005b157620005b062000202565b5b620005bf8e828f01620003b8565b99505060608c015167ffffffffffffffff811115620005e357620005e262000202565b5b620005f18e828f01620003b8565b9850506080620006048e828f016200040f565b97505060a08c015167ffffffffffffffff81111562000628576200062762000202565b5b620006368e828f01620003b8565b96505060c08c015167ffffffffffffffff8111156200065a576200065962000202565b5b620006688e828f01620003b8565b95505060e08c015167ffffffffffffffff8111156200068c576200068b62000202565b5b6200069a8e828f01620003b8565b9450506101008c015167ffffffffffffffff811115620006bf57620006be62000202565b5b620006cd8e828f01620003b8565b9350506101208c015167ffffffffffffffff811115620006f257620006f162000202565b5b620007008e828f01620004ef565b9250506101408c015167ffffffffffffffff81111562000725576200072462000202565b5b620007338e828f01620004ef565b9150509295989b509295989b9093969950565b600081519050919050565b7f4e487b7100000000000000000000000000000000000000000000000000000000600052602260045260246000fd5b600060028204905060018216806200079957607f821691505b602082108103620007af57620007ae62000751565b5b50919050565b60008190508160005260206000209050919050565b60006020601f8301049050919050565b600082821b905092915050565b600060088302620008197fffffffffffffffffffffffffffffffffffffffffffffffffffffffffffffffff82620007da565b620008258683620007da565b95508019841693508086168417925050509392505050565b6000819050919050565b600062000868620008626200085c84620003eb565b6200083d565b620003eb565b9050919050565b6000819050919050565b620008848362000847565b6200089c62000893826200086f565b848454620007e7565b825550505050565b600090565b620008b3620008a4565b620008c081848462000879565b505050565b5b81811015620008e857620008dc600082620008a9565b600181019050620008c6565b5050565b601f82111562000937576200090181620007b5565b6200090c84620007ca565b810160208510156200091c578190505b620009346200092b85620007ca565b830182620008c5565b50505b505050565b600082821c905092915050565b60006200095c600019846008026200093c565b1980831691505092915050565b600062000977838362000949565b9150826002028217905092915050565b620009928262000746565b67ffffffffffffffff811115620009ae57620009ad62000287565b5b620009ba825462000780565b620009c7828285620008ec565b600060209050601f831160018114620009ff5760008415620009ea578287015190505b620009f6858262000969565b86555062000a66565b601f19841662000a0f86620007b5565b60005b8281101562000a395784890151825560018201915060208501945060208101905062000a12565b8683101562000a59578489015162000a55601f89168262000949565b8355505b6001600288020188555050505b505050505050565b7f4e487b7100000000000000000000000000000000000000000000000000000000600052603260045260246000fd5b600081905092915050565b600062000ab58262000746565b62000ac1818562000a9d565b935062000ad381856020860162000341565b80840191505092915050565b600062000aed828462000aa8565b915081905092915050565b7f4e487b7100000000000000000000000000000000000000000000000000000000600052601160045260246000fd5b600062000b3482620003eb565b91507fffffffffffffffffffffffffffffffffffffffffffffffffffffffffffffffff820362000b695762000b6862000af8565b5b600182019050919050565b6118c18062000b846000396000f3fe608060405234801561001057600080fd5b506004361061007d5760003560e01c8063aecdff151161005b578063aecdff15146100f3578063b7067db91461010f578063c407460d1461013f578063f0efe2371461015b5761007d565b80632bb815461461008257806350cec7ce146100b25780638e5fe92c146100ce575b600080fd5b61009c60048036038101906100979190610d74565b610177565b6040516100a99190610e3c565b60405180910390f35b6100cc60048036038101906100c79190610e94565b610227565b005b6100d661034d565b6040516100ea98979695949392919061101d565b60405180910390f35b61010d60048036038101906101089190610d74565b610770565b005b610129600480360381019061012491906111b2565b61082b565b6040516101369190611307565b60405180910390f35b61015960048036038101906101549190611329565b610988565b005b610175600480360381019061017091906113d0565b610aff565b005b6060600a826040516101899190611484565b908152602001604051809103902080546101a2906114ca565b80601f01602080910402602001604051908101604052809291908181526020018280546101ce906114ca565b801561021b5780601f106101f05761010080835404028352916020019161021b565b820191906000526020600020905b8154815290600101906020018083116101fe57829003601f168201915b50505050509050919050565b60008054906101000a900473ffffffffffffffffffffffffffffffffffffffff1673ffffffffffffffffffffffffffffffffffffffff163373ffffffffffffffffffffffffffffffffffffffff16146102b5576040517f08c379a00000000000000000000000000000000000000000000000000000000081526004016102ac90611547565b60405180910390fd5b87600260000190816102c79190611713565b5086600260010190816102da9190611713565b50856002800190816102ec9190611713565b508460026003018190555083600260040190816103099190611713565b50826002600501908161031c9190611713565b50816002600601908161032f9190611713565b5080600260070190816103429190611713565b505050505050505050565b606080606060006060806060806002600001600260010160028001600260030154600260040160026005016002600601600260070187805461038e906114ca565b80601f01602080910402602001604051908101604052809291908181526020018280546103ba906114ca565b80156104075780601f106103dc57610100808354040283529160200191610407565b820191906000526020600020905b8154815290600101906020018083116103ea57829003601f168201915b5050505050975086805461041a906114ca565b80601f0160208091040260200160405190810160405280929190818152602001828054610446906114ca565b80156104935780601f1061046857610100808354040283529160200191610493565b820191906000526020600020905b81548152906001019060200180831161047657829003601f168201915b505050505096508580546104a6906114ca565b80601f01602080910402602001604051908101604052809291908181526020018280546104d2906114ca565b801561051f5780601f106104f45761010080835404028352916020019161051f565b820191906000526020600020905b81548152906001019060200180831161050257829003601f168201915b50505050509550838054610532906114ca565b80601f016020809104026020016040519081016040528092919081815260200182805461055e906114ca565b80156105ab5780601f10610580576101008083540402835291602001916105ab565b820191906000526020600020905b81548152906001019060200180831161058e57829003601f168201915b505050505093508280546105be906114ca565b80601f01602080910402602001604051908101604052809291908181526020018280546105ea906114ca565b80156106375780601f1061060c57610100808354040283529160200191610637565b820191906000526020600020905b81548152906001019060200180831161061a57829003601f168201915b5050505050925081805461064a906114ca565b80601f0160208091040260200160405190810160405280929190818152602001828054610676906114ca565b80156106c35780601f10610698576101008083540402835291602001916106c3565b820191906000526020600020905b8154815290600101906020018083116106a657829003601f168201915b505050505091508080546106d6906114ca565b80601f0160208091040260200160405190810160405280929190818152602001828054610702906114ca565b801561074f5780601f106107245761010080835404028352916020019161074f565b820191906000526020600020905b81548152906001019060200180831161073257829003601f168201915b50505050509050975097509750975097509750975097509091929394959697565b60008054906101000a900473ffffffffffffffffffffffffffffffffffffffff1673ffffffffffffffffffffffffffffffffffffffff163373ffffffffffffffffffffffffffffffffffffffff16146107fe576040517f08c379a00000000000000000000000000000000000000000000000000000000081526004016107f590611547565b60405180910390fd5b600a8160405161080e9190611484565b908152602001604051809103902060006108289190610bbd565b50565b60606000825167ffffffffffffffff81111561084a57610849610c49565b5b60405190808252806020026020018201604052801561087d57816020015b60608152602001906001900390816108685790505b50905060005b835181101561097e57600a8482815181106108a1576108a06117e5565b5b60200260200101516040516108b69190611484565b908152602001604051809103902080546108cf906114ca565b80601f01602080910402602001604051908101604052809291908181526020018280546108fb906114ca565b80156109485780601f1061091d57610100808354040283529160200191610948565b820191906000526020600020905b81548152906001019060200180831161092b57829003601f168201915b50505050508282815181106109605761095f6117e5565b5b6020026020010181905250808061097690611843565b915050610883565b5080915050919050565b60008054906101000a900473ffffffffffffffffffffffffffffffffffffffff1673ffffffffffffffffffffffffffffffffffffffff163373ffffffffffffffffffffffffffffffffffffffff1614610a16576040517f08c379a0000000000000000000000000000000000000000000000000000000008152600401610a0d90611547565b60405180910390fd5b60005b8351811015610a7957600a848281518110610a3757610a366117e5565b5b6020026020010151604051610a4c9190611484565b90815260200160405180910390206000610a669190610bbd565b8080610a7190611843565b915050610a19565b5060005b8251811015610af957818181518110610a9957610a986117e5565b5b6020026020010151600a848381518110610ab657610ab56117e5565b5b6020026020010151604051610acb9190611484565b90815260200160405180910390209081610ae59190611713565b508080610af190611843565b915050610a7d565b50505050565b60008054906101000a900473ffffffffffffffffffffffffffffffffffffffff1673ffffffffffffffffffffffffffffffffffffffff163373ffffffffffffffffffffffffffffffffffffffff1614610b8d576040517f08c379a0000000000000000000000000000000000000000000000000000000008152600401610b8490611547565b60405180910390fd5b80600a83604051610b9e9190611484565b90815260200160405180910390209081610bb89190611713565b505050565b508054610bc9906114ca565b6000825580601f10610bdb5750610bfa565b601f016020900490600052602060002090810190610bf99190610bfd565b5b50565b5b80821115610c16576000816000905550600101610bfe565b5090565b6000604051905090565b600080fd5b600080fd5b600080fd5b600080fd5b6000601f19601f8301169050919050565b7f4e487b7100000000000000000000000000000000000000000000000000000000600052604160045260246000fd5b610c8182610c38565b810181811067ffffffffffffffff82111715610ca057610c9f610c49565b5b80604052505050565b6000610cb3610c1a565b9050610cbf8282610c78565b919050565b600067ffffffffffffffff821115610cdf57610cde610c49565b5b610ce882610c38565b9050602081019050919050565b82818337600083830152505050565b6000610d17610d1284610cc4565b610ca9565b905082815260208101848484011115610d3357610d32610c33565b5b610d3e848285610cf5565b509392505050565b600082601f830112610d5b57610d5a610c2e565b5b8135610d6b848260208601610d04565b91505092915050565b600060208284031215610d8a57610d89610c24565b5b600082013567ffffffffffffffff811115610da857610da7610c29565b5b610db484828501610d46565b91505092915050565b600081519050919050565b600082825260208201905092915050565b60005b83811015610df7578082015181840152602081019050610ddc565b60008484015250505050565b6000610e0e82610dbd565b610e188185610dc8565b9350610e28818560208601610dd9565b610e3181610c38565b840191505092915050565b60006020820190508181036000830152610e568184610e03565b905092915050565b6000819050919050565b610e7181610e5e565b8114610e7c57600080fd5b50565b600081359050610e8e81610e68565b92915050565b600080600080600080600080610100898b031215610eb557610eb4610c24565b5b600089013567ffffffffffffffff811115610ed357610ed2610c29565b5b610edf8b828c01610d46565b985050602089013567ffffffffffffffff811115610f0057610eff610c29565b5b610f0c8b828c01610d46565b975050604089013567ffffffffffffffff811115610f2d57610f2c610c29565b5b610f398b828c01610d46565b9650506060610f4a8b828c01610e7f565b955050608089013567ffffffffffffffff811115610f6b57610f6a610c29565b5b610f778b828c01610d46565b94505060a089013567ffffffffffffffff811115610f9857610f97610c29565b5b610fa48b828c01610d46565b93505060c089013567ffffffffffffffff811115610fc557610fc4610c29565b5b610fd18b828c01610d46565b92505060e089013567ffffffffffffffff811115610ff257610ff1610c29565b5b610ffe8b828c01610d46565b9150509295985092959890939650565b61101781610e5e565b82525050565b6000610100820190508181036000830152611038818b610e03565b9050818103602083015261104c818a610e03565b905081810360408301526110608189610e03565b905061106f606083018861100e565b81810360808301526110818187610e03565b905081810360a08301526110958186610e03565b905081810360c08301526110a98185610e03565b905081810360e08301526110bd8184610e03565b90509998505050505050505050565b600067ffffffffffffffff8211156110e7576110e6610c49565b5b602082029050602081019050919050565b600080fd5b600061111061110b846110cc565b610ca9565b90508083825260208201905060208402830185811115611133576111326110f8565b5b835b8181101561117a57803567ffffffffffffffff81111561115857611157610c2e565b5b8086016111658982610d46565b85526020850194505050602081019050611135565b5050509392505050565b600082601f83011261119957611198610c2e565b5b81356111a98482602086016110fd565b91505092915050565b6000602082840312156111c8576111c7610c24565b5b600082013567ffffffffffffffff8111156111e6576111e5610c29565b5b6111f284828501611184565b91505092915050565b600081519050919050565b600082825260208201905092915050565b6000819050602082019050919050565b600082825260208201905092915050565b600061124382610dbd565b61124d8185611227565b935061125d818560208601610dd9565b61126681610c38565b840191505092915050565b600061127d8383611238565b905092915050565b6000602082019050919050565b600061129d826111fb565b6112a78185611206565b9350836020820285016112b985611217565b8060005b858110156112f557848403895281516112d68582611271565b94506112e183611285565b925060208a019950506001810190506112bd565b50829750879550505050505092915050565b600060208201905081810360008301526113218184611292565b905092915050565b60008060006060848603121561134257611341610c24565b5b600084013567ffffffffffffffff8111156113605761135f610c29565b5b61136c86828701611184565b935050602084013567ffffffffffffffff81111561138d5761138c610c29565b5b61139986828701611184565b925050604084013567ffffffffffffffff8111156113ba576113b9610c29565b5b6113c686828701611184565b9150509250925092565b600080604083850312156113e7576113e6610c24565b5b600083013567ffffffffffffffff81111561140557611404610c29565b5b61141185828601610d46565b925050602083013567ffffffffffffffff81111561143257611431610c29565b5b61143e85828601610d46565b9150509250929050565b600081905092915050565b600061145e82610dbd565b6114688185611448565b9350611478818560208601610dd9565b80840191505092915050565b60006114908284611453565b915081905092915050565b7f4e487b7100000000000000000000000000000000000000000000000000000000600052602260045260246000fd5b600060028204905060018216806114e257607f821691505b6020821081036114f5576114f461149b565b5b50919050565b7f596f75277265206e6f74206f776e6572206f6620546869732050726f66696c65600082015250565b6000611531602083610dc8565b915061153c826114fb565b602082019050919050565b6000602082019050818103600083015261156081611524565b9050919050565b60008190508160005260206000209050919050565b60006020601f8301049050919050565b600082821b905092915050565b6000600883026115c97fffffffffffffffffffffffffffffffffffffffffffffffffffffffffffffffff8261158c565b6115d3868361158c565b95508019841693508086168417925050509392505050565b6000819050919050565b600061161061160b61160684610e5e565b6115eb565b610e5e565b9050919050565b6000819050919050565b61162a836115f5565b61163e61163682611617565b848454611599565b825550505050565b600090565b611653611646565b61165e818484611621565b505050565b5b818110156116825761167760008261164b565b600181019050611664565b5050565b601f8211156116c75761169881611567565b6116a18461157c565b810160208510156116b0578190505b6116c46116bc8561157c565b830182611663565b50505b505050565b600082821c905092915050565b60006116ea600019846008026116cc565b1980831691505092915050565b600061170383836116d9565b9150826002028217905092915050565b61171c82610dbd565b67ffffffffffffffff81111561173557611734610c49565b5b61173f82546114ca565b61174a828285611686565b600060209050601f83116001811461177d576000841561176b578287015190505b61177585826116f7565b8655506117dd565b601f19841661178b86611567565b60005b828110156117b35784890151825560018201915060208501945060208101905061178e565b868310156117d057848901516117cc601f8916826116d9565b8355505b6001600288020188555050505b505050505050565b7f4e487b7100000000000000000000000000000000000000000000000000000000600052603260045260246000fd5b7f4e487b7100000000000000000000000000000000000000000000000000000000600052601160045260246000fd5b600061184e82610e5e565b91507fffffffffffffffffffffffffffffffffffffffffffffffffffffffffffffffff82036118805761187f611814565b5b60018201905091905056fea264697066735822122020c6db41118f56dc32a2e101a32c458ec1eb281179d1169f3562b0f8149f529364736f6c63430008110033",
  "immutableReferences": {},
  "source": "// SPDX-License-Identifier: UNLICENSED\npragma solidity ^0.8.0;\n\ncontract Identification {\n    event Register(string _email, string _name, string _gender, address ownerAddr);\n    event Upsert(string _email, string _claim);\n\n    address ownerAddr;\n    address spareAddr;\n\n    struct DefaultClaim {\n        string nick;\n        string fullName;\n        string email;\n        uint gender;\n        string birthdate;\n        string website;\n        string locale;\n        string location;\n    }\n\n    DefaultClaim defaultClaim;\n\n    mapping(string => string) claims;\n\n    constructor(\n        address _spareAddr,\n        string memory _nick,\n        string memory _fullName,\n        string memory _email,\n        uint _gender,\n        string memory _birthdate,\n        string memory _website,\n        string memory _locale,\n        string memory _location,\n        string[] memory _claimKeys,\n        string[] memory _claimValues) {\n\n        ownerAddr = msg.sender;\n        spareAddr = _spareAddr;\n\n        defaultClaim.nick = _nick;\n        defaultClaim.fullName = _fullName;\n        defaultClaim.email = _email;\n        defaultClaim.gender = _gender;\n        defaultClaim.birthdate = _birthdate;\n        defaultClaim.website = _website;\n        defaultClaim.locale = _locale;\n        defaultClaim.location = _location;\n\n        for(uint i = 0; i <_claimKeys.length; i++) {\n            claims[_claimKeys[i]] = _claimValues[i];\n        }\n    }\n\n    modifier onlyOwner() {\n        require(msg.sender == ownerAddr, \"You're not owner of This Profile\");\n        _;\n    }\n\n    function updateDefaultClaim(\n        string memory _nick,\n        string memory _fullName,\n        string memory _email,\n        uint _gender,\n        string memory _birthdate,\n        string memory _website,\n        string memory _locale,\n        string memory _location) external onlyOwner {\n        defaultClaim.nick = _nick;\n        defaultClaim.fullName = _fullName;\n        defaultClaim.email = _email;\n        defaultClaim.gender = _gender;\n        defaultClaim.birthdate = _birthdate;\n        defaultClaim.website = _website;\n        defaultClaim.locale = _locale;\n        defaultClaim.location = _location;\n    }\n\n    function upsert(string memory _name, string memory _value) external onlyOwner {\n        claims[_name] = _value;\n    }\n\n    function updateClaims(\n        string[] memory _claimKeyDels,\n        string[] memory _claimKeys,\n        string[] memory _claimValues) external onlyOwner {\n        for(uint i = 0; i < _claimKeyDels.length; i++) {\n            delete claims[_claimKeyDels[i]];\n        }\n        for(uint i = 0; i < _claimKeys.length; i++) {\n            claims[_claimKeys[i]] = _claimValues[i];\n        }\n    }\n\n    function deleteClaim(string memory _name) external onlyOwner {\n        delete claims[_name];\n    }\n\n    function getClaim(string memory _name) public view returns (string memory) {\n        return claims[_name];\n    }\n\n    function getClaims(string[] memory _claimKeys) public view returns (string[] memory values) {\n        string[] memory vals = new string[](_claimKeys.length);\n        for (uint i = 0; i < _claimKeys.length; i++) {\n            vals[i] = claims[_claimKeys[i]];\n        }\n        return vals;\n    }\n\n    function getDefaultClaim() public view\n    returns (\n        string memory nick,\n        string memory fullName,\n        string memory email,\n        uint gender,\n        string memory birthdate,\n        string memory website,\n        string memory locale,\n        string memory location\n    ) {\n        return (\n        defaultClaim.nick,\n        defaultClaim.fullName,\n        defaultClaim.email,\n        defaultClaim.gender,\n        defaultClaim.birthdate,\n        defaultClaim.website,\n        defaultClaim.locale,\n        defaultClaim.location\n        );\n    }\n}",
  "sourcePath": "/Users/tao.duongkhac/Documents/Blockchain/Truffle/contracts/Identification.sol",
  "compiler": {
    "name": "solc",
    "version": "0.8.17+commit.8df45f5f.Emscripten.clang"
  },
  "schemaVersion": "3.4.11",
  "updatedAt": "2023-03-13T23:36:19.858Z",
  "devdoc": {
    "kind": "dev",
    "methods": {},
    "version": 1
  },
  "userdoc": {
    "kind": "user",
    "methods": {},
    "version": 1
  }
}