{
  "contractName": "Notification",
  "abi": [
    {
      "inputs": [],
      "stateMutability": "nonpayable",
      "type": "constructor"
    },
    {
      "anonymous": false,
      "inputs": [
        {
          "indexed": false,
          "internalType": "string",
          "name": "_hEmail",
          "type": "string"
        }
      ],
      "name": "Register",
      "type": "event"
    },
    {
      "anonymous": false,
      "inputs": [
        {
          "indexed": false,
          "internalType": "string",
          "name": "_hEmail",
          "type": "string"
        }
      ],
      "name": "UnRegister",
      "type": "event"
    },
    {
      "anonymous": false,
      "inputs": [
        {
          "indexed": false,
          "internalType": "string",
          "name": "_hEmail",
          "type": "string"
        }
      ],
      "name": "Update",
      "type": "event"
    },
    {
      "inputs": [
        {
          "internalType": "string",
          "name": "_hEmail",
          "type": "string"
        },
        {
          "internalType": "string",
          "name": "_deviceType",
          "type": "string"
        },
        {
          "internalType": "string",
          "name": "_deviceToken",
          "type": "string"
        }
      ],
      "name": "register",
      "outputs": [],
      "stateMutability": "nonpayable",
      "type": "function"
    },
    {
      "inputs": [
        {
          "internalType": "string",
          "name": "_hEmail",
          "type": "string"
        }
      ],
      "name": "unregister",
      "outputs": [],
      "stateMutability": "nonpayable",
      "type": "function"
    },
    {
      "inputs": [
        {
          "internalType": "string",
          "name": "_hEmail",
          "type": "string"
        },
        {
          "internalType": "string",
          "name": "_deviceType",
          "type": "string"
        },
        {
          "internalType": "string",
          "name": "_deviceToken",
          "type": "string"
        }
      ],
      "name": "update",
      "outputs": [],
      "stateMutability": "nonpayable",
      "type": "function"
    },
    {
      "inputs": [
        {
          "internalType": "string",
          "name": "_hEmail",
          "type": "string"
        }
      ],
      "name": "get",
      "outputs": [
        {
          "internalType": "string",
          "name": "",
          "type": "string"
        },
        {
          "internalType": "string",
          "name": "",
          "type": "string"
        },
        {
          "internalType": "address",
          "name": "",
          "type": "address"
        }
      ],
      "stateMutability": "view",
      "type": "function"
    }
  ],
  "bytecode": "0x608060405234801561001057600080fd5b50610ffc806100206000396000f3fe608060405234801561001057600080fd5b506004361061004c5760003560e01c806331c3e456146100515780634cd08d031461006d5780636598a1ae14610089578063693ec85e146100a5575b600080fd5b61006b60048036038101906100669190610950565b6100d7565b005b61008760048036038101906100829190610950565b61020f565b005b6100a3600480360381019061009e91906109f7565b610316565b005b6100bf60048036038101906100ba91906109f7565b6105d1565b6040516100ce93929190610b00565b60405180910390f35b600080846040516100e89190610b81565b908152602001604051809103902090508060020160009054906101000a900473ffffffffffffffffffffffffffffffffffffffff1673ffffffffffffffffffffffffffffffffffffffff168160020160009054906101000a900473ffffffffffffffffffffffffffffffffffffffff1673ffffffffffffffffffffffffffffffffffffffff16146101ae576040517f08c379a00000000000000000000000000000000000000000000000000000000081526004016101a590610c0a565b60405180910390fd5b828160000190816101bf9190610e40565b50818160010190816101d19190610e40565b507f4795394c9ba5c9b8fdc2b6a3863583ff4f034afb09e58c49eb82a5e45e3be1fb846040516102019190610f12565b60405180910390a150505050565b600060405180606001604052808481526020018381526020013373ffffffffffffffffffffffffffffffffffffffff168152509050806000856040516102559190610b81565b908152602001604051809103902060008201518160000190816102789190610e40565b50602082015181600101908161028e9190610e40565b5060408201518160020160006101000a81548173ffffffffffffffffffffffffffffffffffffffff021916908373ffffffffffffffffffffffffffffffffffffffff1602179055509050507f40b2d3af7e7a908ab771e3b293d2df299bb187d4ac2dcb3dbc2455fdcf5c15dd846040516103089190610f12565b60405180910390a150505050565b600080826040516103279190610b81565b908152602001604051809103902060405180606001604052908160008201805461035090610c59565b80601f016020809104026020016040519081016040528092919081815260200182805461037c90610c59565b80156103c95780601f1061039e576101008083540402835291602001916103c9565b820191906000526020600020905b8154815290600101906020018083116103ac57829003601f168201915b505050505081526020016001820180546103e290610c59565b80601f016020809104026020016040519081016040528092919081815260200182805461040e90610c59565b801561045b5780601f106104305761010080835404028352916020019161045b565b820191906000526020600020905b81548152906001019060200180831161043e57829003601f168201915b505050505081526020016002820160009054906101000a900473ffffffffffffffffffffffffffffffffffffffff1673ffffffffffffffffffffffffffffffffffffffff1673ffffffffffffffffffffffffffffffffffffffff16815250509050806040015173ffffffffffffffffffffffffffffffffffffffff163373ffffffffffffffffffffffffffffffffffffffff161461052e576040517f08c379a000000000000000000000000000000000000000000000000000000000815260040161052590610fa6565b60405180910390fd5b60008260405161053e9190610b81565b90815260200160405180910390206000808201600061055d9190610799565b60018201600061056d9190610799565b6002820160006101000a81549073ffffffffffffffffffffffffffffffffffffffff021916905550507fdc72fcb27fe7307433ae621be003691f5e26bc5173ecf240a03a23d6ef558468826040516105c59190610f12565b60405180910390a15050565b6060806000806000856040516105e79190610b81565b908152602001604051809103902060405180606001604052908160008201805461061090610c59565b80601f016020809104026020016040519081016040528092919081815260200182805461063c90610c59565b80156106895780601f1061065e57610100808354040283529160200191610689565b820191906000526020600020905b81548152906001019060200180831161066c57829003601f168201915b505050505081526020016001820180546106a290610c59565b80601f01602080910402602001604051908101604052809291908181526020018280546106ce90610c59565b801561071b5780601f106106f05761010080835404028352916020019161071b565b820191906000526020600020905b8154815290600101906020018083116106fe57829003601f168201915b505050505081526020016002820160009054906101000a900473ffffffffffffffffffffffffffffffffffffffff1673ffffffffffffffffffffffffffffffffffffffff1673ffffffffffffffffffffffffffffffffffffffff16815250509050806000015181602001518260400151935093509350509193909250565b5080546107a590610c59565b6000825580601f106107b757506107d6565b601f0160209004906000526020600020908101906107d591906107d9565b5b50565b5b808211156107f25760008160009055506001016107da565b5090565b6000604051905090565b600080fd5b600080fd5b600080fd5b600080fd5b6000601f19601f8301169050919050565b7f4e487b7100000000000000000000000000000000000000000000000000000000600052604160045260246000fd5b61085d82610814565b810181811067ffffffffffffffff8211171561087c5761087b610825565b5b80604052505050565b600061088f6107f6565b905061089b8282610854565b919050565b600067ffffffffffffffff8211156108bb576108ba610825565b5b6108c482610814565b9050602081019050919050565b82818337600083830152505050565b60006108f36108ee846108a0565b610885565b90508281526020810184848401111561090f5761090e61080f565b5b61091a8482856108d1565b509392505050565b600082601f8301126109375761093661080a565b5b81356109478482602086016108e0565b91505092915050565b60008060006060848603121561096957610968610800565b5b600084013567ffffffffffffffff81111561098757610986610805565b5b61099386828701610922565b935050602084013567ffffffffffffffff8111156109b4576109b3610805565b5b6109c086828701610922565b925050604084013567ffffffffffffffff8111156109e1576109e0610805565b5b6109ed86828701610922565b9150509250925092565b600060208284031215610a0d57610a0c610800565b5b600082013567ffffffffffffffff811115610a2b57610a2a610805565b5b610a3784828501610922565b91505092915050565b600081519050919050565b600082825260208201905092915050565b60005b83811015610a7a578082015181840152602081019050610a5f565b60008484015250505050565b6000610a9182610a40565b610a9b8185610a4b565b9350610aab818560208601610a5c565b610ab481610814565b840191505092915050565b600073ffffffffffffffffffffffffffffffffffffffff82169050919050565b6000610aea82610abf565b9050919050565b610afa81610adf565b82525050565b60006060820190508181036000830152610b1a8186610a86565b90508181036020830152610b2e8185610a86565b9050610b3d6040830184610af1565b949350505050565b600081905092915050565b6000610b5b82610a40565b610b658185610b45565b9350610b75818560208601610a5c565b80840191505092915050565b6000610b8d8284610b50565b915081905092915050565b7f596f752063616e277420757064617465207468697320746f6b656e2c20596f7560008201527f277265206e6f74206f776e207468697320746f6b656e2e000000000000000000602082015250565b6000610bf4603783610a4b565b9150610bff82610b98565b604082019050919050565b60006020820190508181036000830152610c2381610be7565b9050919050565b7f4e487b7100000000000000000000000000000000000000000000000000000000600052602260045260246000fd5b60006002820490506001821680610c7157607f821691505b602082108103610c8457610c83610c2a565b5b50919050565b60008190508160005260206000209050919050565b60006020601f8301049050919050565b600082821b905092915050565b600060088302610cec7fffffffffffffffffffffffffffffffffffffffffffffffffffffffffffffffff82610caf565b610cf68683610caf565b95508019841693508086168417925050509392505050565b6000819050919050565b6000819050919050565b6000610d3d610d38610d3384610d0e565b610d18565b610d0e565b9050919050565b6000819050919050565b610d5783610d22565b610d6b610d6382610d44565b848454610cbc565b825550505050565b600090565b610d80610d73565b610d8b818484610d4e565b505050565b5b81811015610daf57610da4600082610d78565b600181019050610d91565b5050565b601f821115610df457610dc581610c8a565b610dce84610c9f565b81016020851015610ddd578190505b610df1610de985610c9f565b830182610d90565b50505b505050565b600082821c905092915050565b6000610e1760001984600802610df9565b1980831691505092915050565b6000610e308383610e06565b9150826002028217905092915050565b610e4982610a40565b67ffffffffffffffff811115610e6257610e61610825565b5b610e6c8254610c59565b610e77828285610db3565b600060209050601f831160018114610eaa5760008415610e98578287015190505b610ea28582610e24565b865550610f0a565b601f198416610eb886610c8a565b60005b82811015610ee057848901518255600182019150602085019450602081019050610ebb565b86831015610efd5784890151610ef9601f891682610e06565b8355505b6001600288020188555050505b505050505050565b60006020820190508181036000830152610f2c8184610a86565b905092915050565b7f596f752063616e2774206e6f7420756e7265676973746572207468697320746f60008201527f6b656e2e00000000000000000000000000000000000000000000000000000000602082015250565b6000610f90602483610a4b565b9150610f9b82610f34565b604082019050919050565b60006020820190508181036000830152610fbf81610f83565b905091905056fea26469706673582212202297198ecc2208fc4a96f191ef9f5f482881e7db6880da7b30c11e58978a5e1864736f6c63430008110033",
  "immutableReferences": {},
  "source": "// SPDX-License-Identifier: UNLICENSED\npragma solidity ^0.8.0;\n\ncontract Notification {\n\n    event Register(string _hEmail);\n    event UnRegister(string _hEmail);\n    event Update(string _hEmail);\n\n    struct Token {\n        string deviceType;\n        string deviceToken;\n        address owner;\n    }\n\n    mapping(string => Token) tokens;\n\n    constructor(){}\n\n    function register(string memory _hEmail, string memory _deviceType, string memory _deviceToken) external {\n        Token memory token = Token (\n            _deviceType,\n            _deviceToken,\n            msg.sender\n        );\n\n        tokens[_hEmail] = token;\n        emit Register(_hEmail);\n    }\n\n    function unregister(string memory _hEmail) external {\n        Token memory token = tokens[_hEmail];\n        require(msg.sender == token.owner, \"You can't not unregister this token.\");\n        delete tokens[_hEmail];\n\n        emit UnRegister(_hEmail);\n    }\n\n    function update(string memory _hEmail, string memory _deviceType, string memory _deviceToken) external {\n        Token storage token = tokens[_hEmail];\n        require(token.owner == token.owner, \"You can't update this token, You're not own this token.\");\n        token.deviceType = _deviceType;\n        token.deviceToken = _deviceToken;\n        emit Update(_hEmail);\n    }\n\n    function get(string memory _hEmail) external view\n    returns (\n        string memory,\n        string memory,\n        address\n    ) {\n        Token memory token = tokens[_hEmail];\n        // require(msg.sender == token.owner, \"You can't get this token\");\n\n        return (\n        token.deviceType,\n        token.deviceToken,\n        token.owner\n        );\n    }\n}\n",
  "sourcePath": "/Users/tao.duongkhac/Documents/Blockchain/Truffle/contracts/Notification.sol",
  "compiler": {
    "name": "solc",
    "version": "0.8.17+commit.8df45f5f.Emscripten.clang"
  },
  "schemaVersion": "3.4.11",
  "updatedAt": "2023-03-13T23:36:19.868Z",
  "devdoc": {
    "kind": "dev",
    "methods": {},
    "version": 1
  },
  "userdoc": {
    "kind": "user",
    "methods": {},
    "version": 1
  }
}